:100000000C942A000C943F000C943F000C943F0089
:100010000C943F000C943F000C943F000C943F0064
:100020000C943F000C943F000C943F000C943F0054
:100030000C943F000C943F000C943F000C943F0044
:100040000C943F000C943F000C943F000C943F0034
:100050000C943F0011241FBECFE5D8E0DEBFCDBF1A
:1000600010E0A0E6B0E0E4ECF3E002C005900D92F1
:10007000AA36B107D9F70E94CA010C94E0010C948A
:1000800000004130B1F5813099F0813030F082309C
:10009000D1F0833009F067C021C02AB381E090E03D
:1000A00002C0880F991F6A95E2F7282B2ABB089592
:1000B00027B381E090E002C0880F991F6A95E2F7AC
:1000C000282B27BB089524B381E090E002C0880F5D
:1000D000991F6A95E2F7282B24BB089521B381E08C
:1000E00090E002C0880F991F6A95E2F7282B21BB88
:1000F00008954423C1F5813099F0813028F0823091
:10010000D9F0833081F524C02AB381E090E002C0A9
:10011000880F991F6A95E2F7809582238ABB08951C
:1001200027B381E090E002C0880F991F6A95E2F73B
:100130008095822387BB089524B381E090E002C0BC
:10014000880F991F6A95E2F78095822384BB0895F2
:1001500021B381E090E002C0880F991F6A95E2F711
:100160008095822381BB0895413059F5813041F05B
:10017000813030F0823079F0833009F05CC016C0F5
:100180002BB381E090E002C0880F991F6A95E2F7D7
:10019000282B2BBB089525B381E090E002C0880F87
:1001A000991F6A95E2F7282B25BB089522B381E0B9
:1001B00090E002C0880F991F6A95E2F7282B22BBB6
:1001C00008954423C1F5813099F0813028F08230C0
:1001D000D9F0833081F524C02BB381E090E002C0D8
:1001E000880F991F6A95E2F7809582238BBB08954B
:1001F00028B381E090E002C0880F991F6A95E2F76A
:100200008095822388BB089525B381E090E002C0E9
:10021000880F991F6A95E2F78095822385BB089520
:1002200022B381E090E002C0880F991F6A95E2F73F
:100230008095822382BB0895813051F0813030F067
:10024000823041F0833079F080E0089589B303C0B3
:1002500086B301C083B390E002C0959587956A95F7
:10026000E2F78170089580B390E002C0959587957C
:100270006A95E2F781700895813049F0813028F065
:10028000823039F0833041F406C06ABB089567BB01
:10029000089564BB089561BB0895813049F08130B1
:1002A00028F0823039F0833041F406C06BBB0895EA
:1002B00068BB089565BB089562BB0895813051F015
:1002C000813030F0823041F0833041F080E0089599
:1002D00089B3089586B3089583B3089580B30895CC
:1002E00083E06FEF0E943C01089583E06FEF0E946E
:1002F0003C0108958A3048F4E82FF0E0E05AFF4FBF
:100300006081609583E00E944D010895DF92EF9235
:10031000FF920F931F93CF93DF93DD24FF24EE24EE
:10032000E394C0E2DEE481E06F2D40E00E94B4007F
:100330000E2D14E081E0612F0E941C01882309F436
:10034000D02E81E0612F0E941C018823D1F3CE01C1
:100350000197F1F71F5F0F5F183061F781E06F2D94
:1003600041E00E94B400F39484E0E80EF816D9F658
:100370008D2DDF91CF911F910F91FF90EF90DF9026
:10038000089581E06FE00E943C0181E06FEF0E94E0
:100390004D010895CF93DF930E9475010E94C10122
:1003A000C8ECD0E00E9486018823E1F30E947A0124
:1003B00084EC99E0FE013197F1F70197D9F7F2CF7C
:0403C000F894FFCFDF
:0A03C4003F065B4F666D7D077F6FFB
:00000001FF
