:100000000C942A000C9434000C9434000C943400AA
:100010000C9434000C9434000C9434000C94340090
:100020000C9434000C9434000C9434000C94340080
:100030000C9434000C9434000C9434000C94340070
:100040000C9434000C9434000C9434000C94340060
:100050000C94340011241FBECFE5D8E0DEBFCDBF25
:100060000E9476000C947D000C9400008FE087BB0A
:100070008FEF88BB0895CF93DF93F0E060E070E0EE
:10008000E0E0C1E0D0E0A0E2BEE488B39E01062E2D
:1000900002C0220F331F0A94E2F7922F9095982303
:1000A00098BB44E050E03E2F335086B390E0042EDE
:1000B00002C0959587950A94E2F780FD02C0F32F60
:1000C000F40F86B3CD010197F1F74F5F5F4F4830D2
:1000D000510559F788B3282B28BB6F5F7F4FEC5F22
:1000E000E03199F68F2FDF91CF9108958FE087BB94
:0E00F0008FEF88BB0E943B00FDCFF894FFCF3E
:00000001FF
